{
  "contractName": "CourseMarketplace",
  "abi": [
    {
      "inputs": [],
      "stateMutability": "nonpayable",
      "type": "constructor"
    },
    {
      "inputs": [],
      "name": "CourseHasOwner",
      "type": "error"
    },
    {
      "inputs": [],
      "name": "CourseIsNotCreated",
      "type": "error"
    },
    {
      "inputs": [],
      "name": "InvalidState",
      "type": "error"
    },
    {
      "inputs": [],
      "name": "OnlyOwner",
      "type": "error"
    },
    {
      "inputs": [],
      "name": "SenderIsNotCourseOwner",
      "type": "error"
    },
    {
      "inputs": [],
      "name": "isStopped",
      "outputs": [
        {
          "internalType": "bool",
          "name": "",
          "type": "bool"
        }
      ],
      "stateMutability": "view",
      "type": "function",
      "constant": true
    },
    {
      "inputs": [],
      "name": "stopContract",
      "outputs": [],
      "stateMutability": "nonpayable",
      "type": "function"
    },
    {
      "inputs": [],
      "name": "resumeContract",
      "outputs": [],
      "stateMutability": "nonpayable",
      "type": "function"
    },
    {
      "inputs": [
        {
          "internalType": "bytes16",
          "name": "courseId",
          "type": "bytes16"
        },
        {
          "internalType": "bytes32",
          "name": "proof",
          "type": "bytes32"
        }
      ],
      "name": "purchaseCourse",
      "outputs": [],
      "stateMutability": "payable",
      "type": "function",
      "payable": true
    },
    {
      "inputs": [
        {
          "internalType": "bytes32",
          "name": "courseHash",
          "type": "bytes32"
        }
      ],
      "name": "repurchaseCourse",
      "outputs": [],
      "stateMutability": "payable",
      "type": "function",
      "payable": true
    },
    {
      "inputs": [
        {
          "internalType": "bytes32",
          "name": "courseHash",
          "type": "bytes32"
        }
      ],
      "name": "activateCourse",
      "outputs": [],
      "stateMutability": "nonpayable",
      "type": "function"
    },
    {
      "inputs": [
        {
          "internalType": "bytes32",
          "name": "courseHash",
          "type": "bytes32"
        }
      ],
      "name": "deactivateCourse",
      "outputs": [],
      "stateMutability": "nonpayable",
      "type": "function"
    },
    {
      "inputs": [
        {
          "internalType": "address",
          "name": "newOwner",
          "type": "address"
        }
      ],
      "name": "transferOwnership",
      "outputs": [],
      "stateMutability": "nonpayable",
      "type": "function"
    },
    {
      "inputs": [],
      "name": "getCourseCount",
      "outputs": [
        {
          "internalType": "uint256",
          "name": "",
          "type": "uint256"
        }
      ],
      "stateMutability": "view",
      "type": "function",
      "constant": true
    },
    {
      "inputs": [
        {
          "internalType": "uint256",
          "name": "index",
          "type": "uint256"
        }
      ],
      "name": "getCourseHashAtIndex",
      "outputs": [
        {
          "internalType": "bytes32",
          "name": "",
          "type": "bytes32"
        }
      ],
      "stateMutability": "view",
      "type": "function",
      "constant": true
    },
    {
      "inputs": [
        {
          "internalType": "bytes32",
          "name": "courseHash",
          "type": "bytes32"
        }
      ],
      "name": "getCourseByHash",
      "outputs": [
        {
          "components": [
            {
              "internalType": "uint256",
              "name": "id",
              "type": "uint256"
            },
            {
              "internalType": "uint256",
              "name": "price",
              "type": "uint256"
            },
            {
              "internalType": "bytes32",
              "name": "proof",
              "type": "bytes32"
            },
            {
              "internalType": "address",
              "name": "owner",
              "type": "address"
            },
            {
              "internalType": "enum CourseMarketplace.State",
              "name": "state",
              "type": "uint8"
            }
          ],
          "internalType": "struct CourseMarketplace.Course",
          "name": "",
          "type": "tuple"
        }
      ],
      "stateMutability": "view",
      "type": "function",
      "constant": true
    },
    {
      "inputs": [],
      "name": "getContractOwner",
      "outputs": [
        {
          "internalType": "address",
          "name": "",
          "type": "address"
        }
      ],
      "stateMutability": "view",
      "type": "function",
      "constant": true
    }
  ],
  "bytecode": "0x608060405260008060006101000a81548160ff02191690831515021790555034801561002a57600080fd5b5061003a3361003f60201b60201c565b610083565b80600460006101000a81548173ffffffffffffffffffffffffffffffffffffffff021916908373ffffffffffffffffffffffffffffffffffffffff16021790555050565b611578806100926000396000f3fe6080604052600436106100a75760003560e01c80636d11290b116100645780636d11290b1461019b578063935d7e6d146101d857806396cfda0614610201578063c4bc5da51461022c578063d76821cb14610243578063f2fde38b1461025f576100a7565b806312253a6c146100ac57806339262572146100c35780633f683b6a146100ec578063442890d5146101175780636136e1eb1461014257806362e4e6ac1461015e575b600080fd5b3480156100b857600080fd5b506100c1610288565b005b3480156100cf57600080fd5b506100ea60048036038101906100e59190611077565b610310565b005b3480156100f857600080fd5b506101016104fc565b60405161010e9190611279565b60405180910390f35b34801561012357600080fd5b5061012c61050d565b604051610139919061125e565b60405180910390f35b61015c60048036038101906101579190611077565b610537565b005b34801561016a57600080fd5b5061018560048036038101906101809190611077565b6106fe565b60405161019291906112cf565b60405180910390f35b3480156101a757600080fd5b506101c260048036038101906101bd91906110a0565b610826565b6040516101cf9190611294565b60405180910390f35b3480156101e457600080fd5b506101ff60048036038101906101fa9190611077565b610843565b005b34801561020d57600080fd5b50610216610b0e565b60405161022391906112ea565b60405180910390f35b34801561023857600080fd5b50610241610b18565b005b61025d6004803603810190610258919061103b565b610ba0565b005b34801561026b57600080fd5b5061028660048036038101906102819190611012565b610da5565b005b61029061050d565b73ffffffffffffffffffffffffffffffffffffffff163373ffffffffffffffffffffffffffffffffffffffff16146102f4576040517f5fc483c500000000000000000000000000000000000000000000000000000000815260040160405180910390fd5b60016000806101000a81548160ff021916908315150217905550565b60008054906101000a900460ff161561032857600080fd5b61033061050d565b73ffffffffffffffffffffffffffffffffffffffff163373ffffffffffffffffffffffffffffffffffffffff1614610394576040517f5fc483c500000000000000000000000000000000000000000000000000000000815260040160405180910390fd5b61039d81610e1d565b6103d3576040517f4db0c48300000000000000000000000000000000000000000000000000000000815260040160405180910390fd5b600060016000838152602001908152602001600020905060006002811115610424577f4e487b7100000000000000000000000000000000000000000000000000000000600052602160045260246000fd5b8160030160149054906101000a900460ff16600281111561046e577f4e487b7100000000000000000000000000000000000000000000000000000000600052602160045260246000fd5b146104a5576040517fbaf3f0f700000000000000000000000000000000000000000000000000000000815260040160405180910390fd5b60018160030160146101000a81548160ff021916908360028111156104f3577f4e487b7100000000000000000000000000000000000000000000000000000000600052602160045260246000fd5b02179055505050565b60008054906101000a900460ff1681565b6000600460009054906101000a900473ffffffffffffffffffffffffffffffffffffffff16905090565b60008054906101000a900460ff161561054f57600080fd5b61055881610e1d565b61058e576040517f4db0c48300000000000000000000000000000000000000000000000000000000815260040160405180910390fd5b61059781610e8c565b6105cd576040517fcce31cc400000000000000000000000000000000000000000000000000000000815260040160405180910390fd5b600060016000838152602001908152602001600020905060028081111561061d577f4e487b7100000000000000000000000000000000000000000000000000000000600052602160045260246000fd5b8160030160149054906101000a900460ff166002811115610667577f4e487b7100000000000000000000000000000000000000000000000000000000600052602160045260246000fd5b1461069e576040517fbaf3f0f700000000000000000000000000000000000000000000000000000000815260040160405180910390fd5b60008160030160146101000a81548160ff021916908360028111156106ec577f4e487b7100000000000000000000000000000000000000000000000000000000600052602160045260246000fd5b02179055503481600101819055505050565b610706610f3e565b600160008381526020019081526020016000206040518060a00160405290816000820154815260200160018201548152602001600282015481526020016003820160009054906101000a900473ffffffffffffffffffffffffffffffffffffffff1673ffffffffffffffffffffffffffffffffffffffff1673ffffffffffffffffffffffffffffffffffffffff1681526020016003820160149054906101000a900460ff1660028111156107e3577f4e487b7100000000000000000000000000000000000000000000000000000000600052602160045260246000fd5b600281111561081b577f4e487b7100000000000000000000000000000000000000000000000000000000600052602160045260246000fd5b815250509050919050565b600060026000838152602001908152602001600020549050919050565b60008054906101000a900460ff161561085b57600080fd5b61086361050d565b73ffffffffffffffffffffffffffffffffffffffff163373ffffffffffffffffffffffffffffffffffffffff16146108c7576040517f5fc483c500000000000000000000000000000000000000000000000000000000815260040160405180910390fd5b6108d081610e1d565b610906576040517f4db0c48300000000000000000000000000000000000000000000000000000000815260040160405180910390fd5b600060016000838152602001908152602001600020905060006002811115610957577f4e487b7100000000000000000000000000000000000000000000000000000000600052602160045260246000fd5b8160030160149054906101000a900460ff1660028111156109a1577f4e487b7100000000000000000000000000000000000000000000000000000000600052602160045260246000fd5b146109d8576040517fbaf3f0f700000000000000000000000000000000000000000000000000000000815260040160405180910390fd5b60008160030160009054906101000a900473ffffffffffffffffffffffffffffffffffffffff1673ffffffffffffffffffffffffffffffffffffffff168260010154604051610a2690611249565b60006040518083038185875af1925050503d8060008114610a63576040519150601f19603f3d011682016040523d82523d6000602084013e610a68565b606091505b5050905080610aac576040517f08c379a0000000000000000000000000000000000000000000000000000000008152600401610aa3906112af565b60405180910390fd5b60028260030160146101000a81548160ff02191690836002811115610afa577f4e487b7100000000000000000000000000000000000000000000000000000000600052602160045260246000fd5b021790555060008260010181905550505050565b6000600354905090565b610b2061050d565b73ffffffffffffffffffffffffffffffffffffffff163373ffffffffffffffffffffffffffffffffffffffff1614610b84576040517f5fc483c500000000000000000000000000000000000000000000000000000000815260040160405180910390fd5b60008060006101000a81548160ff021916908315150217905550565b60008054906101000a900460ff1615610bb857600080fd5b60008233604051602001610bcd92919061121d565b604051602081830303815290604052805190602001209050610bee81610e8c565b15610c25576040517fb0fc2d9700000000000000000000000000000000000000000000000000000000815260040160405180910390fd5b600060036000815480929190610c3a906113c4565b9190505590508160026000838152602001908152602001600020819055506040518060a001604052808281526020013481526020018481526020013373ffffffffffffffffffffffffffffffffffffffff16815260200160006002811115610ccb577f4e487b7100000000000000000000000000000000000000000000000000000000600052602160045260246000fd5b8152506001600084815260200190815260200160002060008201518160000155602082015181600101556040820151816002015560608201518160030160006101000a81548173ffffffffffffffffffffffffffffffffffffffff021916908373ffffffffffffffffffffffffffffffffffffffff16021790555060808201518160030160146101000a81548160ff02191690836002811115610d97577f4e487b7100000000000000000000000000000000000000000000000000000000600052602160045260246000fd5b021790555090505050505050565b610dad61050d565b73ffffffffffffffffffffffffffffffffffffffff163373ffffffffffffffffffffffffffffffffffffffff1614610e11576040517f5fc483c500000000000000000000000000000000000000000000000000000000815260040160405180910390fd5b610e1a81610efa565b50565b60008073ffffffffffffffffffffffffffffffffffffffff166001600084815260200190815260200160002060030160009054906101000a900473ffffffffffffffffffffffffffffffffffffffff1673ffffffffffffffffffffffffffffffffffffffff1614159050919050565b60003373ffffffffffffffffffffffffffffffffffffffff166001600084815260200190815260200160002060030160009054906101000a900473ffffffffffffffffffffffffffffffffffffffff1673ffffffffffffffffffffffffffffffffffffffff16149050919050565b80600460006101000a81548173ffffffffffffffffffffffffffffffffffffffff021916908373ffffffffffffffffffffffffffffffffffffffff16021790555050565b6040518060a00160405280600081526020016000815260200160008019168152602001600073ffffffffffffffffffffffffffffffffffffffff16815260200160006002811115610fb8577f4e487b7100000000000000000000000000000000000000000000000000000000600052602160045260246000fd5b81525090565b600081359050610fcd816114e6565b92915050565b600081359050610fe2816114fd565b92915050565b600081359050610ff781611514565b92915050565b60008135905061100c8161152b565b92915050565b60006020828403121561102457600080fd5b600061103284828501610fbe565b91505092915050565b6000806040838503121561104e57600080fd5b600061105c85828601610fd3565b925050602061106d85828601610fe8565b9150509250929050565b60006020828403121561108957600080fd5b600061109784828501610fe8565b91505092915050565b6000602082840312156110b257600080fd5b60006110c084828501610ffd565b91505092915050565b6110d281611321565b82525050565b6110e181611321565b82525050565b6110f86110f382611321565b61140d565b82525050565b61110781611333565b82525050565b61111e6111198261133f565b61141f565b82525050565b61112d8161136b565b82525050565b61113c8161136b565b82525050565b61114b816113b2565b82525050565b600061115e601083611310565b9150611169826114a6565b602082019050919050565b6000611181600083611305565b915061118c826114cf565b600082019050919050565b60a0820160008201516111ad60008501826111ff565b5060208201516111c060208501826111ff565b5060408201516111d36040850182611124565b5060608201516111e660608501826110c9565b5060808201516111f96080850182611142565b50505050565b611208816113a8565b82525050565b611217816113a8565b82525050565b6000611229828561110d565b60108201915061123982846110e7565b6014820191508190509392505050565b600061125482611174565b9150819050919050565b600060208201905061127360008301846110d8565b92915050565b600060208201905061128e60008301846110fe565b92915050565b60006020820190506112a96000830184611133565b92915050565b600060208201905081810360008301526112c881611151565b9050919050565b600060a0820190506112e46000830184611197565b92915050565b60006020820190506112ff600083018461120e565b92915050565b600081905092915050565b600082825260208201905092915050565b600061132c82611388565b9050919050565b60008115159050919050565b60007fffffffffffffffffffffffffffffffff0000000000000000000000000000000082169050919050565b6000819050919050565b6000819050611383826114d2565b919050565b600073ffffffffffffffffffffffffffffffffffffffff82169050919050565b6000819050919050565b60006113bd82611375565b9050919050565b60006113cf826113a8565b91507fffffffffffffffffffffffffffffffffffffffffffffffffffffffffffffffff8214156114025761140161143b565b5b600182019050919050565b600061141882611429565b9050919050565b6000819050919050565b600061143482611499565b9050919050565b7f4e487b7100000000000000000000000000000000000000000000000000000000600052601160045260246000fd5b7f4e487b7100000000000000000000000000000000000000000000000000000000600052602160045260246000fd5b60008160601b9050919050565b7f5472616e73666572206661696c65642100000000000000000000000000000000600082015250565b50565b600381106114e3576114e261146a565b5b50565b6114ef81611321565b81146114fa57600080fd5b50565b6115068161133f565b811461151157600080fd5b50565b61151d8161136b565b811461152857600080fd5b50565b611534816113a8565b811461153f57600080fd5b5056fea26469706673582212203879cc3287b8111e03df1589a77ba126be2d928d8943d76daa14ecd01aeddb1f64736f6c63430008040033",
  "immutableReferences": {},
  "source": "// SPDX-License-Identifier: MIT\npragma solidity >=0.4.22 <0.9.0;\ncontract CourseMarketplace {\n  enum State {\n    Purchased,\n    Activated,\n    Deactivated\n  }\n  struct Course {\n    uint id; // 32\n    uint price; // 32\n    bytes32 proof; // 32\n    address owner; // 20\n    State state; // 1\n  }\n\n  bool public isStopped = false;\n\n  // mapping of courseHash to Course data\n  mapping(bytes32 => Course) private ownedCourses;\n\n  // mapping of courseID to courseHash\n  mapping(uint => bytes32) private ownedCourseHash;\n  // number of all courses + id of the course\n  uint private totalOwnedCourses;\n  address payable private owner;\n  constructor() {\n    setContractOwner(msg.sender);\n  }\n  /// Course has invalid state!\n  error InvalidState();\n  /// Course is not created!\n  error CourseIsNotCreated();\n  /// Course has already a Owner!\n  error CourseHasOwner();\n  /// Sender is not course owner!\n  error SenderIsNotCourseOwner();\n  /// Only owner has an access!\n  error OnlyOwner();\n  modifier onlyOwner() {\n    if (msg.sender != getContractOwner()) {\n      revert OnlyOwner();\n    }\n    _;\n  }\n\n  modifier onlyWhenNotStopped {\n    require(!isStopped);\n    _;\n  }\n\n  function stopContract()\n    external\n    onlyOwner\n  {\n    isStopped = true;\n  }\n\n  function resumeContract()\n    external\n    onlyOwner\n  {\n    isStopped = false;\n  }\n\n  function purchaseCourse(\n    bytes16 courseId, // 0x00000000000000000000000000003130\n    bytes32 proof // 0x0000000000000000000000000000313000000000000000000000000000003130\n  )\n    external\n    payable\n    onlyWhenNotStopped\n  {\n    bytes32 courseHash = keccak256(abi.encodePacked(courseId, msg.sender));\n\n    if (hasCourseOwnership(courseHash)) {\n      revert CourseHasOwner();\n    }\n    uint id = totalOwnedCourses++;\n    ownedCourseHash[id] = courseHash;\n    ownedCourses[courseHash] = Course({\n      id: id,\n      price: msg.value,\n      proof: proof,\n      owner: msg.sender,\n      state: State.Purchased\n    });\n  }\n  function repurchaseCourse(bytes32 courseHash)\n    external\n    payable\n    onlyWhenNotStopped\n  {\n    if (!isCourseCreated(courseHash)) {\n      revert CourseIsNotCreated();\n    }\n    if (!hasCourseOwnership(courseHash)) {\n      revert SenderIsNotCourseOwner();\n    }\n    Course storage course = ownedCourses[courseHash];\n    if (course.state != State.Deactivated) {\n      revert InvalidState();\n    }\n    course.state = State.Purchased;\n    course.price = msg.value;\n  }\n\n  function activateCourse(bytes32 courseHash)\n    external\n    onlyWhenNotStopped\n    onlyOwner\n  {\n    if (!isCourseCreated(courseHash)) {\n      revert CourseIsNotCreated();\n    }\n    Course storage course = ownedCourses[courseHash];\n    if (course.state != State.Purchased) {\n      revert InvalidState();\n    }\n    course.state = State.Activated;\n  }\n\n  function deactivateCourse(bytes32 courseHash)\n    external\n    onlyWhenNotStopped\n    onlyOwner\n  {\n    if (!isCourseCreated(courseHash)) {\n      revert CourseIsNotCreated();\n    }\n    Course storage course = ownedCourses[courseHash];\n    if (course.state != State.Purchased) {\n      revert InvalidState();\n    }\n    (bool success, ) = course.owner.call{value: course.price}(\"\");\n    require(success, \"Transfer failed!\");\n    course.state = State.Deactivated;\n    course.price = 0;\n  }\n  function transferOwnership(address newOwner)\n    external\n    onlyOwner\n  {\n    setContractOwner(newOwner);\n  }\n  function getCourseCount()\n    external\n    view\n    returns (uint)\n  {\n    return totalOwnedCourses;\n  }\n  function getCourseHashAtIndex(uint index)\n    external\n    view\n    returns (bytes32)\n  {\n    return ownedCourseHash[index];\n  }\n  function getCourseByHash(bytes32 courseHash)\n    external\n    view\n    returns (Course memory)\n  {\n    return ownedCourses[courseHash];\n  }\n  function getContractOwner()\n    public\n    view\n    returns (address)\n  {\n    return owner;\n  }\n  function setContractOwner(address newOwner) private {\n    owner = payable(newOwner);\n  }\n  function isCourseCreated(bytes32 courseHash)\n    private\n    view\n    returns (bool)\n  {\n    return ownedCourses[courseHash].owner != 0x0000000000000000000000000000000000000000;\n  }\n  function hasCourseOwnership(bytes32 courseHash)\n    private\n    view\n    returns (bool)\n  {\n    return ownedCourses[courseHash].owner == msg.sender;\n  }\n}",
  "sourcePath": "D:\\Testing for Blockchain\\my-app\\contracts\\CourseMarketplace.sol",
  "compiler": {
    "name": "solc",
    "version": "0.8.4+commit.c7e474f2.Emscripten.clang"
  },
  "schemaVersion": "3.4.16",
  "updatedAt": "2024-03-01T11:21:59.745Z",
  "networkType": "ethereum",
  "devdoc": {
    "kind": "dev",
    "methods": {},
    "version": 1
  },
  "userdoc": {
    "errors": {
      "CourseHasOwner()": [
        {
          "notice": "Course has already a Owner!"
        }
      ],
      "CourseIsNotCreated()": [
        {
          "notice": "Course is not created!"
        }
      ],
      "InvalidState()": [
        {
          "notice": "Course has invalid state!"
        }
      ],
      "OnlyOwner()": [
        {
          "notice": "Only owner has an access!"
        }
      ],
      "SenderIsNotCourseOwner()": [
        {
          "notice": "Sender is not course owner!"
        }
      ]
    },
    "kind": "user",
    "methods": {},
    "version": 1
  }
}